:1000000008308A00DA2D00000A108A100A118207CF
:100010000A340D34203449346E3463346934613425
:100020006C3469347A3461346E3464346F3420341F
:100030000A340D3400340A108A100A1182070A3477
:100040000D3420344434653474346534633474348A
:1000500061346E3464346F34203455345334423454
:10006000203465342034563465347234733461344A
:100070006F343A342E342E342E342E3420340A3455
:100080000D3400340A108A100A11820749345034A2
:1000900041340D3400340A108A100A1182070D34DD
:1000A000203448344F34523441343A34203400340C
:1000B0000A108A100A11820720344C344134543417
:1000C0003A34203400340A108A100A11820720348E
:1000D0004434493452343A34203400340A108A10FB
:1000E0000A11820720344C344F344E3447343A34AA
:1000F000203400340A108A100A1182072034533445
:100100004134543445344C344934543445345334F4
:100110003A34203400340A108A100A11820720343D
:1001200041346C34743469347434753464346534F3
:100130003A34203400340A108A100A11820720341D
:100140006D346534743472346F34733400340A108F
:100150008A100A1182074F345034573420347434D3
:10016000633463345F346734703473342E347434DE
:10017000783474340D3400340A108A100A1182075E
:100180005734523446342034333433340D3400344D
:100190000A108A100A11820743344C344634203442
:1001A0007434633463345F346734703473342E349E
:1001B0007434783474340D3400340A108A100A11FF
:1001C000E43E03188A0A82002E342E342E342E3454
:1001D0002E342E342E342E342E342E342E342E340F
:1001E0002E342E342E342E342E342E342E345034DD
:1001F00052344F3443345534523441344E34443401
:100200004F34203453344134543445344C3449341D
:10021000543445342E342E342E342E342E342E3491
:100220002E342E342E342E342E342E342E342E34BE
:100230002E342E342E340034703083168F000F0885
:1002400083128A15092E4B30840083170008031986
:1002500036290230F800F701F70B2C29F80B2B296F
:100260009730F700F70B3229800B292900348316C9
:1002700006108312061464300317CB0003132321E6
:10028000831606108312061064300317CB00031385
:1002900023218A150C2E83160513831205130830AB
:1002A000F80052290000F8176529F8130317CD0C40
:1002B000031303180517031C051378176529781312
:1002C000F80B56296329000005173F308400840B82
:1002D00067290000F81B5529781B5F290034831615
:1002E00085158312851972290830F7000317C80194
:1002F000F7178A29F7138A290310031385190314A2
:100300000317C80C77178A297713F70B7C2948083D
:10031000F80095293F30F71B1130F800F80B8E29B3
:10032000F71B7A29771B84297C2903138A154F2E02
:1003300083160514831205189B290830F70003174C
:10034000C801F717B329F713B329031003130518CE
:1003500003140317C80C7717B3297713F70BA529D4
:100360004808F800BF298430F71B2430F800F80B48
:10037000B729BA29F71BA329771BAD29A529031390
:1003800000340317C901480849020318DE29490847
:10039000440784008313451883170008CA004908DE
:1003A0004607840083134718831700084A0203197D
:1003B000DC290030F800E029C90AC3290130F8001F
:1003C00003138A15D32E30300317D2025208F800D7
:1003D00003130034F701F80103174D0803104E18FA
:1003E000F707F70CF80CCE18F707F70CF80C4E19B6
:1003F000F707F70CF80CCE19F707F70CF80C4E1AA4
:10040000F707F70CF80CCE1AF707F70CF80C4E1B91
:10041000F707F70CF80CCE1BF707F70CF80C0313D3
:10042000003403175208F801510203181A2A510820
:10043000F700262AF7010830D300D10DF70D520836
:1004400077020318F700F80DD30B1D2A03130034AD
:1004500010300317CF00F701FA01CC0CCB0C031CB2
:10046000372A4D08F7070318FA0A4E08FA07FA0C5C
:10047000F70CF90CF80CCF0B2D2A0313003483165C
:100480008612831286120830F800462A0000F817F8
:10049000592AF8130317DE0C031303188616031CDE
:1004A00086127817592A7813F80B4A2A572A00001F
:1004B00086163F308400840B5B2A0000F81B492A13
:1004C000781B532A003403175E080319D42AE60068
:1004D00062080319D42AE6070318752A7F30E6025A
:1004E000031CD42A0319D42A792A8130E607031879
:1004F000D42A6608F700F801F901FA015F08EA005A
:10050000EA176008E9006108E8001830E600E70132
:10051000681CA22A6508FA07031C942AF90A031D1D
:10052000942AF80A0319E7176408F907031C9B2AA1
:10053000F80A0319E7176308E000E0176008F807F6
:100540000318E717E70DF80CF90CFA0CEA0CE90CA4
:10055000E80C0310E60B872A0130F7070318D42AAA
:10056000F81BB92AEA0DFA0DF90DF80DF703031976
:10057000D42AEA1FCA2AFA0A031DCA2AF90A031D45
:10058000CA2AF80A031DCA2AF80CF90CFA0CF70A51
:100590000319D42A5F08E7006308E706E71FD22A99
:1005A000F817D82AF813D82AF701F801F901FA0147
:1005B00003130034F701F801F901FA010317E6010A
:1005C000E701E801E90165086404630462040319B2
:1005D000192B2030EA000310DE0DDF0DE00DE10DD8
:1005E000E60DE70DE80DE90D65086902031D022B14
:1005F00064086802031D022B63086702031D022BB7
:1006000062086602031C132B6208E6026308031CDF
:10061000630FE7026408031C640FE8026508031C0B
:10062000650FE9020314F70DF80DF90DFA0DEA0B49
:10063000EB2A663084008317031300340408031781
:10064000D6005508D8000319402B5408E100530880
:10065000E0005208DF005108DE00E501E40120302F
:10066000E3008230E200031363227A080317D40008
:100670007908D3007808D2007708D100D80B252B51
:100680005408E1005308E0005208DF005108DE0082
:100690005E08B63CDE00FA015F08E200DF170310D7
:1006A000DF0CE00CE10CFA0CF90CF80CF70CDE0B8B
:1006B0004F2BE21F662BF709F809F909FA09F70A27
:1006C0000319F80A0319F90A0319FA0A7A08D40077
:1006D0007908D3007808D2007708D100D41F7D2B89
:1006E000D603D616D109D209D309D409D10A0319E0
:1006F000D20A0319D30A0319D40A3B30DD009A3019
:10070000DC00CA30DB00DA010A30D80055080319D2
:10071000D60A5408E1005308E0005208DF005108EF
:10072000DE005D08E5005C08E4005B08E3005A08B1
:10073000E2000313DA2200080317D100840A00083C
:10074000D200840A0008D300840A0008D400FD30D7
:100750008407F708031DBF2B550A58020319BF2B46
:1007600056080319C12B0F3958020319B92B031866
:10077000F92BD61BF92B561BC12B2030F32B203025
:10078000D605D61ED12BD6125508031DD6037708E1
:10079000D6002D30DE0003133F2203175608F70062
:1007A000D60155085802031DE12B7708D6002E30DC
:1007B000DE0003133F2203175608F7002030D6054A
:1007C00000303030D61EF32BD6125508031DD60349
:1007D0007708D6002D30DE0003133F22031756089A
:1007E000F700D6013030F7077708DE0003133F2209
:1007F00003175D08E1005C08E0005B08DF005A08B1
:10080000DE00E501E401E3010A30E2000313DA222D
:100810007A080317DD007908DC007808DB00770828
:10082000DA00D80B892B031300340317CE01CD0156
:10083000CC01CB01CF014F08063C031CC22D4F0851
:10084000023C0319CF0A4E08E1004D08E0004C08B5
:10085000DF004B08DE00E501E4012030E3008230D8
:10086000E200031363227A080317CE007908CD0053
:100870007808CC007708CB0066304F0784008313DC
:100880000008D100D2000313E32178080317D00039
:10089000D2015008D1008E30F7005208F8005108FC
:1008A000F900FA01F808031D5F2C7908F800F90136
:1008B0000830F702F808031D5F2CF701672C0310BE
:1008C000F81B662CF90DF80DF7035F2CF813831055
:1008D0004E08D4004D08D3004C08D2004B08D1007C
:1008E0007A08D8007908D7007808D6007708D500AC
:1008F00080308318D606DB01DC015208DA00560886
:10090000DA0651080319682DD900F70055080319B4
:10091000712DD90203190D2D031CCB2C5608DF00B5
:10092000DF175708DE005808DD00DC010310DF0C7C
:10093000DE0CDD0CDC0CD90B952CDA1FA22C5B1421
:10094000852D5B1059105B165430840083179A2D47
:100950005B12DA1BB52C591CC02CDF0CDE0CDD0C35
:10096000DC0CF70A0319802DC02CDF1BC32C0310ED
:10097000DC0DDD0DDE0DDF0DF7030319802DB52C29
:100980005B172D2D5B135208DA00DA1FC92CDF1715
:10099000792DDF13792D5508D900F7005108D902B8
:1009A0005208DF00DF175308DE005408DD00DC01C9
:1009B0000310DF0CDE0CDD0CDC0CD90BD72CDA1F9E
:1009C000E42CDB14852DDB105910DB165830840025
:1009D00083179A2DDB12DA1BF72C591C022DDF0C22
:1009E000DE0CDD0CDC0CF70A0319802D022DDF1B59
:1009F000052D0310DC0DDD0DDE0DDF0DF7030319F2
:100A0000802DF72CDB172D2DDB135608DA00DA1FAB
:100A10000B2DDF17792DDF13792D5608DF00DF1737
:100A20005708DE005808DD00DA1F1A2DDF135B15AA
:100A3000852D5B11DC0159105430840083179A2DE9
:100A4000DA1B432D5208DA00591C2D2DDF0CDE0C69
:100A5000DD0CDC0CF70A0319802DDC1F3E2DDD0AAE
:100A6000031D3E2DDE0A031D3E2DDF0A031D3E2D14
:100A7000DF0CDE0CDD0CF70A0319802D5B1BC22C8A
:100A8000DB1B042D622D8030DF06DF1F4B2D852DF3
:100A90005608DA00582D5208DA00DF08031D582DD9
:100AA000DE08031D582DDD08031D582DF701792D93
:100AB000DF1B622D0310DC0DDD0DDE0DDF0DF70BEE
:100AC000582D802DDA1F662DDF17792DDF13792D34
:100AD0005508F7005608DF005708DE005808DD000B
:100AE000792D5108F7005208DF005308DE00540842
:100AF000DD005F08F8005E08F9005D08FA00B82D17
:100B0000F701F801F901FA01B82DDC01DD09DE0970
:100B1000DF09DC09DC0A031D932DDD0A031D932D7B
:100B2000DE0A0319DF0A5B18A12CDB18E32C5B1922
:100B3000192D482D0008DD07031CA42DDE0A031D16
:100B4000A42DDF0A0319591484030008DE07031CCF
:100B5000AC2DDF0A0319591484030008801F803A62
:100B6000DF07031859145B1AA82CDB1AEA2C202D76
:100B70007A08CE007908CD007808CC007708CB0041
:100B8000CF0A1B2C4E08E1004D08E0004C08DF00A6
:100B90004B08DE00E501E4012030E3008230E20092
:100BA000031363227A080317CE007908CD00780872
:100BB000CC007708CB004E08D4004D08D3004C0879
:100BC000D2004B08D100D801D7014030D600813087
:100BD000D50051080319AE2EDD0055080319AE2EBD
:100BE000DD02031CF82D7F30DD070318AE2EFE2D2D
:100BF0008130DD02031CAE2E0319AE2E5D08F70016
:100C0000F801F901FA01DC015208DB00DB17530897
:100C1000DA005408D9001930DD005808D902031849
:100C2000212E0130DA020318212EDB020318212EB7
:100C3000DC020318212EDC0ADB0ADA0A5808D9077D
:100C4000532E5708DA0203183C2E0130DB0203183A
:100C50003C2EDC0203183C2EDC0ADB0A5708DA07BC
:100C60005808D907031C532EDA0A031D532EDB0A3A
:100C7000031D532EDC0A532E56088038DB0203185E
:100C8000522E0130DC020318522EDC0A560880383E
:100C9000DB075708DA07031C302EDB0A031D302E52
:100CA000DC0A302E7A14DD0B562E612E0310D90D7E
:100CB000DA0DDB0DDC0D0310FA0DF90DF80DDE0D6C
:100CC0000D2E5E1C692E0310F80CF90CFA0CDE0CCC
:100CD0006C2EF7030319AE2EDE1B952E0310D90DD3
:100CE000DA0DDB0DDC0D5808D9020318812E013016
:100CF000DA020318812EDB020318812EDC02031CAA
:100D0000A42E5708DA0203188C2E0130DB020318D8
:100D10008C2EDC02031CA42E56088038DB0203183C
:100D2000952E0130DC02031CA42EFA0A031DA42E0A
:100D3000F90A031DA42EF80A031DA42EF70A0319AD
:100D4000AE2EF80CF90CFA0C5208DD005608DD0640
:100D5000DD1FAC2EF817B22EF813B22EF701F801F2
:100D6000F901FA017A08CE007908CD007808CC00A4
:100D70007708CB004E08D4004D08D3004C08D200B1
:100D80004B08D100D8015030D7004330D6008F3007
:100D9000D5005208D9005608D906D91FD42E031100
:100DA0000310D21B0314072F5208D9005508DA008C
:100DB0005108DA020319E22ED91F072F0308013A5E
:100DC0008300072F5608DA005208DA020319EE2EC4
:100DD000D91F072F0308013A8300072F5708DA00AD
:100DE0005308DA020319FA2ED91F072F0308013A14
:100DF0008300072F5808DA005408DA020319062F77
:100E0000D91F072F0308013A8300072F0310031C83
:100E1000272F3030DE0003133F22043084000317F5
:100E20004E08D4004D08D3004C08D2004B08D10026
:100E3000D50103131E232C300317DE0003133F22BA
:100E400020300317DE0003133F223E2F0317043028
:100E500084004E08D4004D08D3004C08D2004B0843
:100E6000D100D50103131E232C300317DE0003131A
:0E0E70003F2220300317DE0003133F22003420
:101000000317C801CB014B088A1103134B208A1523
:101010000317CB0AF700CD008A1103134B218A1561
:10102000083003174B02031D0328C80A4808440769
:1010300084008313451883170008CB00D2008A115F
:101040000313E3218A1578080317CD000A30CE0078
:101050008A110313EA218A1578080317CD00C80AFC
:101060004808440784008313451883170008CE00FE
:10107000D2008A110313E3218A15780803174D075C
:10108000C7004708023C031C48281530C7074A28F8
:101090000330C7024708CB001B30CC004B08D100FF
:1010A0006430D2008A11031311228A1577080317BE
:1010B000CB0078083030031D6428CC1C6F28CC1975
:1010C0006F284C1A20306728CC114C124C14F807AA
:1010D0007808CD008A1103134B218A1503174B089A
:1010E000D1000A30D2008A11031311228A15770821
:1010F0000317CB0078083030031D8428CC198C28C6
:101100004C1C8C284C1A2030F8077808CD008A1126
:1011100003134B218A1503173030CB074B08CD0042
:101120008A1103134B218A153A300317CD008A1117
:1011300003134B218A150317C80A48084407840083
:101140008313451883170008CB00CD008A110313C1
:101150004B218A150317C80A4808440784008313E3
:10116000451883170008CB00CD008A1103134B21CB
:101170008A153A300317CD008A1103134B218A15C3
:101180000317C80A480844078400831345188317C7
:101190000008CB00CD008A1103134B218A150317D9
:1011A000C80A4808440784008313451883170008B9
:1011B000CB00CD008A1103134B218A150B30031786
:1011C000C80001304807440784008313451883177B
:1011D0000008CA004A082C3C0319C32DCB014B0858
:1011E0008A11031358208A150317CB0AF700CD0084
:1011F0008A1103134B218A15063003174B02031D76
:10120000EF280C3044078400831345188317000827
:10121000CB00CD008A1103134B218A150D30031723
:10122000440784008313451883170008CB00CD00C2
:101230008A1103134B218A1564300317CD008A11DC
:1012400003134B218A1520300317CD008A11031395
:101250004B218A150E300317440784008313451869
:1012600083170008CB00CD008A1103134B218A1588
:101270000F300317440784008313451883170008B1
:10128000CB00CD008A1103134B218A152730031799
:10129000CD008A1103134B218A1520300317CD008E
:1012A0008A1103134B218A150317CB014B088A11AE
:1012B000031363208A150317CB0AF700CD008A11A8
:1012C00003134B218A15063003174B02031D5629C1
:1012D0001630440784008313451883170008CB0099
:1012E000CD008A1103134B218A150317CB014B083C
:1012F0008A1103136E208A150317CB0AF700CD005D
:101300008A1103134B218A15073003174B02031D63
:101310007729183044078400831345188317000881
:10132000CA004A08303C0319272A183044078400B1
:101330008313451883170008CB00CD008A110313CF
:101340004B218A151930031744078400831345186D
:1013500083170008CB00CD008A1103134B218A1597
:101360001A300317440784008313451883170008B5
:10137000CB00CD008A1103134B218A150317C60831
:101380000319262A1830440784008313451883174D
:101390000008CB00D2008A110313E3218A15FD0156
:1013A0007808FC007D080317CC007C08CB00CE0138
:1013B0006430CD008A11031328228A157908FD00B4
:1013C0007808FC001930031744078400831345187C
:1013D00083170008CB00D2008A110313E3218A157A
:1013E0007808FC070318FD0A7D080317CC007C0869
:1013F000CB00CE010A30CD008A11031328228A15B2
:101400007908FD007808FC001A30031744078400AF
:101410008313451883170008CB00D2008A110313E9
:10142000E3218A157808FC070318FD0A2330031707
:10143000440784008313451883170008573C031D95
:10144000262AFC09FD09FC0A0319FD0A882A19301D
:10145000440784008313451883170008CB00CD0090
:101460008A1103134B218A151A300317440784008D
:101470008313451883170008CB00CD008A1103138E
:101480004B218A150317C6080319882A1930440707
:1014900084008313451883170008CB00D2008A11FB
:1014A0000313E3218A15FD017808FC007D0803176A
:1014B000CC007C08CB00CE010A30CD008A1103138A
:1014C00028228A157908FD007808FC001A300317D5
:1014D000440784008313451883170008CB00D2000B
:1014E0008A110313E3218A157808FC070318FD0A03
:1014F000233003174407840083134518831700081B
:10150000573C031D882AFC09FD09FC0A0319FD0A42
:101510006430CD008A1103134B218A152030031744
:10152000CD008A1103134B218A151B300317440782
:1015300084008313451883170008CB00CD008A115F
:1015400003134B218A151C300317440784008313AF
:10155000451883170008CB00CD008A1103134B21D7
:101560008A1527300317CD008A1103134B218A15E2
:1015700020300317CD008A1103134B218A1503175E
:10158000CB014B088A11031363208A150317CB0A7A
:10159000F700CD008A1103134B218A15063003177B
:1015A0004B02031DC12A23304407840083134518CE
:1015B00083170008CB00CD008A1103134B218A1535
:1015C00026300317C800CB014B088A1103137A2079
:1015D0008A150317CB0AF700CD008A1103134B219C
:1015E0008A150C3003174B02031DE42AC80A480869
:1015F000440784008313451883170008CB00CD00EF
:101600008A1103134B218A150317C80A4808440797
:1016100084008313451883170008CB00CD008A117E
:1016200003134B218A152D300317C800CB014B083B
:101630008A1103138B208A150317CB0AF700CD00FC
:101640008A1103134B218A150B3003174B02031D1C
:10165000172B01304807440784008313451883176C
:1016600000082E3C03194F2B013048074407840023
:1016700083134518831700082C3C03194F2BC80A05
:101680004808440784008313451883170008CB00DB
:10169000CD008A1103134B218A150317292BCB0187
:1016A0004B088A1103139B208A150317CB0AF700F6
:1016B000CD008A1103134B218A15073003174B0203
:1016C000031D502BC6080319C12D831603130610E2
:1016D00083120610E5016508093C031C7F2B0D30C1
:1016E0000317DE008A1103133F228A1564300317A3
:1016F000CB008A11031323218A15E50A6B2B0317EC
:10170000CB014B088A110313A7208A150317CB0AB4
:10171000F700DE008A1103133F228A1510300317E9
:101720004B02031D812B0A30CB008A1103132321A6
:101730008A150317CB014B088A110313BC208A15A5
:101740000317CB0AF700DE008A1103133F228A1524
:10175000073003174B02031D9B2B0A30CB008A1165
:10176000031323218A150A300317DE008A1103139D
:101770003F228A150D300317DE008A1103133F2222
:101780008A1520300317DE008A1103133F228A15C1
:10179000023084007D080317CC007C08CB00D30105
:1017A0000408D2005310831B5314CC1FDF2BD21715
:1017B000521ED20ACB09CC09CB0A0319CC0A4C0E13
:1017C000F038CE00CE07E23ECF00323ED1004C08CA
:1017D0000F39CF07CF07D107E93ED000D007D00798
:1017E0004B0E0F39D007D107D00DD10DD109D10D36
:1017F0004B080F39D107CE0D0730CD000A30D10785
:10180000D003031CFF2BD007CF03031C032CCF07EF
:10181000CE03031C072CCE07CD03031C0B2C4D302D
:101820008400831707305205521384035205031DA9
:10183000202C521A840A521A202C2030F7003D2CFA
:10184000840751300402031952170008F700031DE2
:10185000312C521B312C521A4F2CD219312C2030E2
:101860003C2CD21F392C2D30F70084035213D21395
:101870003D2CD21552123030F707CC010408CB00B2
:101880004C10831B4C147708DE008A1103133F228F
:101890008A1503174B08840083134C188317840A96
:1018A000521F212C2E30DE008A1103133F228A158D
:1018B000E5016508063C031C792C663065070317B3
:1018C000CB00CC010318CC0A1B30031365070317A8
:1018D000440784008313451883170008CE004B0883
:1018E000840083134C1883174E0880000313E50A05
:1018F000592C8A1115248A150C30031744078400CB
:101900008313451883170008CB00D2008A110313F4
:10191000E3218A157808F50075080317CD000A3011
:10192000CE008A110313EA218A157808F5000D30DC
:101930000317440784008313451883170008CB005E
:10194000D2008A110313E3218A157808F5071630AF
:101950000317440784008313451883170008533C7A
:10196000031DB42CF509F50A7508CB001330CC0023
:1019700020304C1E3030CD004B08F700CB1FC72C59
:10198000F709F70A7708CB002D30CD00CC174B08AC
:10199000D1006430D2008A11031311228A1577080E
:1019A0000317CB0030307807CE004B08D1000A3047
:1019B000D2008A11031311228A15303077070317DA
:1019C000D00030307807CF004D08F700CC1DEA2C4E
:1019D000CC1F4C114C1AF72CCC1F122D4C19122D68
:1019E0007708CE00CC18122D7708CF00122D30309A
:1019F0004E02031D122D7708CE002030CD00CC1DE5
:101A0000052D4C11CC14CC1FCC1030304F02031DCF
:101A1000122D7708CF002030CE00CC1D052DCC1024
:101A2000CC1F4C104C1D1B2D4D08DE008A110313DA
:101A30003F228A150317CC1C242D4E08DE008A1184
:101A400003133F228A1503174C1C2D2D4F08DE006F
:101A50008A1103133F228A1503175008DE008A11EA
:101A600003133F228A152E300317DE008A11031359
:101A70003F228A15E5016508063C031C5B2D663094
:101A800065070317CB00CC010318CC0A0E300313F3
:101A9000650703174407840083134518831700085C
:101AA000CE004B08840083134C1883174E08800027
:101AB0000313E50A3B2D8A1115248A152D300317CF
:101AC000C800013048074407840083134518831772
:101AD00000082E3C0319872D013048074407840075
:101AE00083134518831700082C3C0319872DC80A57
:101AF0004808440784008313451883170008CB0067
:101B0000DE008A1103133F228A150317612D0A3064
:101B1000DE008A1103133F228A15E5016508043CA3
:101B2000031C9B2D0D300317DE008A1103133F2287
:101B30008A15E50A8E2D0A300317CB008A1103138C
:101B400023218A150317CB014B088A110313C820E0
:101B50008A150317CB0AF700DE008A1103133F2210
:101B60008A15103003174B02031DA42D6430CB00DF
:101B70008A11031323218A15831606108312061473
:101B80000317D72DD72DCB014B088A110313DD2066
:101B90008A150317CB0AF700CD008A1103134B21D6
:101BA0008A15373003174B02031DC42DD72D03139D
:101BB0008A15072F840183131F30830583161F1294
:101BC0009F121B0880399B0007309C00473083120E
:101BD000DC005030DD004730DE00DF004130E00047
:101BE000E1014730EF005030F0004730F100F200E3
:101BF0004130F300F40147308316DA005030DB0047
:101C00004730DC00DD004130DE00DF018A11831245
:101C10001C298A158A1137298A150317C40144081B
:101C20008A11031304208A150317C40AF700CD0094
:101C30008A1103134B218A15123003174402031D26
:101C40000F2E0313DA010317C301C40144088A11DC
:101C500003131B208A150317C40AF700CD008A114D
:101C600003134B218A15223003174402031D262E2D
:101C70000313DB0185193A2EDB08031D692E851934
:101C8000682E21305A07840083130317C701040804
:101C9000C6004710831B47148A1103136F298A1546
:101CA00003174608840083134718831778088000B9
:101CB0000313DA0A5A08323C0319DA0121305A07B1
:101CC0008400831300080D3C031D682E0130DB00E7
:101CD0003C2E0317C20103135A08031742020318CC
:101CE0007F2E21304207840083130008C400CD00FA
:101CF0008A1103134B218A150317C20A6B2E0D306C
:101D0000CD008A1103134B218A150A300317CD0029
:101D10008A1103134B218A158316061083120614A9
:101D20000030051C0130013C031D9B2E8A119821B7
:101D30008A157808A1002108243C031D072F0317EA
:101D4000C2014208043C031CC82E00300313051CCA
:101D50000130003A031DAF2E0317A52E03132130C7
:101D60000317420784008313C7010408C600471005
:101D7000831B47148A11031398218A1503174608F9
:101D8000840083134718831778088000C20AA12EA5
:101D9000C5015C30C400C7012130C6000530C80051
:101DA0008A110313C1298A15F8080319072F03178D
:101DB000C2014208313C031C002F00300313051CF4
:101DC0000130003A031DE72E0317DD2E03132130E7
:101DD0000317420784008313C7010408C600471095
:101DE000831B47148A11031398218A150317460889
:101DF000840083134718831778088000C20AD92EFD
:101E0000C5012130C4004308C6000313002883160F
:101E1000051583120519392FFF300317C3066430E7
:101E2000CB008A11031323218A158316051583120B
:101E3000051D152FC8300317CB008A11031323216A
:101E40008A150317C3080319382FC40144088A11DF
:101E5000031342208A150317C40AF700DE008A1113
:101E600003133F228A15043003174402031D262F53
:061E70000313902E630035
:04400E00383FFF3FF9
:00000001FF
;PIC16F88
